{
  "_format": "hh3-artifact-1",
  "contractName": "CertificateNFT",
  "sourceName": "contracts/CertificateNFT.sol",
  "abi": [
    {
      "inputs": [
        {
          "internalType": "string",
          "name": "name",
          "type": "string"
        },
        {
          "internalType": "string",
          "name": "symbol",
          "type": "string"
        },
        {
          "internalType": "address",
          "name": "admin",
          "type": "address"
        }
      ],
      "stateMutability": "nonpayable",
      "type": "constructor"
    },
    {
      "inputs": [],
      "name": "AccessControlBadConfirmation",
      "type": "error"
    },
    {
      "inputs": [
        {
          "internalType": "address",
          "name": "account",
          "type": "address"
        },
        {
          "internalType": "bytes32",
          "name": "neededRole",
          "type": "bytes32"
        }
      ],
      "name": "AccessControlUnauthorizedAccount",
      "type": "error"
    },
    {
      "inputs": [],
      "name": "AlreadyIssued",
      "type": "error"
    },
    {
      "inputs": [
        {
          "internalType": "address",
          "name": "sender",
          "type": "address"
        },
        {
          "internalType": "uint256",
          "name": "tokenId",
          "type": "uint256"
        },
        {
          "internalType": "address",
          "name": "owner",
          "type": "address"
        }
      ],
      "name": "ERC721IncorrectOwner",
      "type": "error"
    },
    {
      "inputs": [
        {
          "internalType": "address",
          "name": "operator",
          "type": "address"
        },
        {
          "internalType": "uint256",
          "name": "tokenId",
          "type": "uint256"
        }
      ],
      "name": "ERC721InsufficientApproval",
      "type": "error"
    },
    {
      "inputs": [
        {
          "internalType": "address",
          "name": "approver",
          "type": "address"
        }
      ],
      "name": "ERC721InvalidApprover",
      "type": "error"
    },
    {
      "inputs": [
        {
          "internalType": "address",
          "name": "operator",
          "type": "address"
        }
      ],
      "name": "ERC721InvalidOperator",
      "type": "error"
    },
    {
      "inputs": [
        {
          "internalType": "address",
          "name": "owner",
          "type": "address"
        }
      ],
      "name": "ERC721InvalidOwner",
      "type": "error"
    },
    {
      "inputs": [
        {
          "internalType": "address",
          "name": "receiver",
          "type": "address"
        }
      ],
      "name": "ERC721InvalidReceiver",
      "type": "error"
    },
    {
      "inputs": [
        {
          "internalType": "address",
          "name": "sender",
          "type": "address"
        }
      ],
      "name": "ERC721InvalidSender",
      "type": "error"
    },
    {
      "inputs": [
        {
          "internalType": "uint256",
          "name": "tokenId",
          "type": "uint256"
        }
      ],
      "name": "ERC721NonexistentToken",
      "type": "error"
    },
    {
      "inputs": [],
      "name": "EnforcedPause",
      "type": "error"
    },
    {
      "inputs": [],
      "name": "ExpectedPause",
      "type": "error"
    },
    {
      "inputs": [],
      "name": "InvalidMetadata",
      "type": "error"
    },
    {
      "inputs": [],
      "name": "Soulbound",
      "type": "error"
    },
    {
      "anonymous": false,
      "inputs": [
        {
          "indexed": true,
          "internalType": "address",
          "name": "owner",
          "type": "address"
        },
        {
          "indexed": true,
          "internalType": "address",
          "name": "approved",
          "type": "address"
        },
        {
          "indexed": true,
          "internalType": "uint256",
          "name": "tokenId",
          "type": "uint256"
        }
      ],
      "name": "Approval",
      "type": "event"
    },
    {
      "anonymous": false,
      "inputs": [
        {
          "indexed": true,
          "internalType": "address",
          "name": "owner",
          "type": "address"
        },
        {
          "indexed": true,
          "internalType": "address",
          "name": "operator",
          "type": "address"
        },
        {
          "indexed": false,
          "internalType": "bool",
          "name": "approved",
          "type": "bool"
        }
      ],
      "name": "ApprovalForAll",
      "type": "event"
    },
    {
      "anonymous": false,
      "inputs": [
        {
          "indexed": false,
          "internalType": "uint256",
          "name": "_fromTokenId",
          "type": "uint256"
        },
        {
          "indexed": false,
          "internalType": "uint256",
          "name": "_toTokenId",
          "type": "uint256"
        }
      ],
      "name": "BatchMetadataUpdate",
      "type": "event"
    },
    {
      "anonymous": false,
      "inputs": [
        {
          "indexed": true,
          "internalType": "uint256",
          "name": "tokenId",
          "type": "uint256"
        },
        {
          "indexed": true,
          "internalType": "uint256",
          "name": "courseId",
          "type": "uint256"
        },
        {
          "indexed": true,
          "internalType": "address",
          "name": "student",
          "type": "address"
        },
        {
          "indexed": false,
          "internalType": "string",
          "name": "metadataURI",
          "type": "string"
        }
      ],
      "name": "CertificateIssued",
      "type": "event"
    },
    {
      "anonymous": false,
      "inputs": [
        {
          "indexed": false,
          "internalType": "uint256",
          "name": "_tokenId",
          "type": "uint256"
        }
      ],
      "name": "MetadataUpdate",
      "type": "event"
    },
    {
      "anonymous": false,
      "inputs": [
        {
          "indexed": false,
          "internalType": "address",
          "name": "account",
          "type": "address"
        }
      ],
      "name": "Paused",
      "type": "event"
    },
    {
      "anonymous": false,
      "inputs": [
        {
          "indexed": true,
          "internalType": "bytes32",
          "name": "role",
          "type": "bytes32"
        },
        {
          "indexed": true,
          "internalType": "bytes32",
          "name": "previousAdminRole",
          "type": "bytes32"
        },
        {
          "indexed": true,
          "internalType": "bytes32",
          "name": "newAdminRole",
          "type": "bytes32"
        }
      ],
      "name": "RoleAdminChanged",
      "type": "event"
    },
    {
      "anonymous": false,
      "inputs": [
        {
          "indexed": true,
          "internalType": "bytes32",
          "name": "role",
          "type": "bytes32"
        },
        {
          "indexed": true,
          "internalType": "address",
          "name": "account",
          "type": "address"
        },
        {
          "indexed": true,
          "internalType": "address",
          "name": "sender",
          "type": "address"
        }
      ],
      "name": "RoleGranted",
      "type": "event"
    },
    {
      "anonymous": false,
      "inputs": [
        {
          "indexed": true,
          "internalType": "bytes32",
          "name": "role",
          "type": "bytes32"
        },
        {
          "indexed": true,
          "internalType": "address",
          "name": "account",
          "type": "address"
        },
        {
          "indexed": true,
          "internalType": "address",
          "name": "sender",
          "type": "address"
        }
      ],
      "name": "RoleRevoked",
      "type": "event"
    },
    {
      "anonymous": false,
      "inputs": [
        {
          "indexed": true,
          "internalType": "address",
          "name": "from",
          "type": "address"
        },
        {
          "indexed": true,
          "internalType": "address",
          "name": "to",
          "type": "address"
        },
        {
          "indexed": true,
          "internalType": "uint256",
          "name": "tokenId",
          "type": "uint256"
        }
      ],
      "name": "Transfer",
      "type": "event"
    },
    {
      "anonymous": false,
      "inputs": [
        {
          "indexed": false,
          "internalType": "address",
          "name": "account",
          "type": "address"
        }
      ],
      "name": "Unpaused",
      "type": "event"
    },
    {
      "inputs": [],
      "name": "DEFAULT_ADMIN_ROLE",
      "outputs": [
        {
          "internalType": "bytes32",
          "name": "",
          "type": "bytes32"
        }
      ],
      "stateMutability": "view",
      "type": "function"
    },
    {
      "inputs": [],
      "name": "MINTER_ROLE",
      "outputs": [
        {
          "internalType": "bytes32",
          "name": "",
          "type": "bytes32"
        }
      ],
      "stateMutability": "view",
      "type": "function"
    },
    {
      "inputs": [
        {
          "internalType": "address",
          "name": "",
          "type": "address"
        },
        {
          "internalType": "uint256",
          "name": "",
          "type": "uint256"
        }
      ],
      "name": "approve",
      "outputs": [],
      "stateMutability": "pure",
      "type": "function"
    },
    {
      "inputs": [
        {
          "internalType": "address",
          "name": "owner",
          "type": "address"
        }
      ],
      "name": "balanceOf",
      "outputs": [
        {
          "internalType": "uint256",
          "name": "",
          "type": "uint256"
        }
      ],
      "stateMutability": "view",
      "type": "function"
    },
    {
      "inputs": [
        {
          "internalType": "uint256",
          "name": "tokenId",
          "type": "uint256"
        }
      ],
      "name": "getApproved",
      "outputs": [
        {
          "internalType": "address",
          "name": "",
          "type": "address"
        }
      ],
      "stateMutability": "view",
      "type": "function"
    },
    {
      "inputs": [
        {
          "internalType": "bytes32",
          "name": "role",
          "type": "bytes32"
        }
      ],
      "name": "getRoleAdmin",
      "outputs": [
        {
          "internalType": "bytes32",
          "name": "",
          "type": "bytes32"
        }
      ],
      "stateMutability": "view",
      "type": "function"
    },
    {
      "inputs": [
        {
          "internalType": "bytes32",
          "name": "role",
          "type": "bytes32"
        },
        {
          "internalType": "address",
          "name": "account",
          "type": "address"
        }
      ],
      "name": "grantRole",
      "outputs": [],
      "stateMutability": "nonpayable",
      "type": "function"
    },
    {
      "inputs": [
        {
          "internalType": "bytes32",
          "name": "role",
          "type": "bytes32"
        },
        {
          "internalType": "address",
          "name": "account",
          "type": "address"
        }
      ],
      "name": "hasRole",
      "outputs": [
        {
          "internalType": "bool",
          "name": "",
          "type": "bool"
        }
      ],
      "stateMutability": "view",
      "type": "function"
    },
    {
      "inputs": [
        {
          "internalType": "address",
          "name": "owner",
          "type": "address"
        },
        {
          "internalType": "address",
          "name": "operator",
          "type": "address"
        }
      ],
      "name": "isApprovedForAll",
      "outputs": [
        {
          "internalType": "bool",
          "name": "",
          "type": "bool"
        }
      ],
      "stateMutability": "view",
      "type": "function"
    },
    {
      "inputs": [
        {
          "internalType": "address",
          "name": "student",
          "type": "address"
        },
        {
          "internalType": "uint256",
          "name": "courseId",
          "type": "uint256"
        },
        {
          "internalType": "string",
          "name": "metadataURI",
          "type": "string"
        }
      ],
      "name": "mintCertificate",
      "outputs": [
        {
          "internalType": "uint256",
          "name": "",
          "type": "uint256"
        }
      ],
      "stateMutability": "nonpayable",
      "type": "function"
    },
    {
      "inputs": [],
      "name": "name",
      "outputs": [
        {
          "internalType": "string",
          "name": "",
          "type": "string"
        }
      ],
      "stateMutability": "view",
      "type": "function"
    },
    {
      "inputs": [],
      "name": "nextTokenId",
      "outputs": [
        {
          "internalType": "uint256",
          "name": "",
          "type": "uint256"
        }
      ],
      "stateMutability": "view",
      "type": "function"
    },
    {
      "inputs": [
        {
          "internalType": "uint256",
          "name": "tokenId",
          "type": "uint256"
        }
      ],
      "name": "ownerOf",
      "outputs": [
        {
          "internalType": "address",
          "name": "",
          "type": "address"
        }
      ],
      "stateMutability": "view",
      "type": "function"
    },
    {
      "inputs": [],
      "name": "pause",
      "outputs": [],
      "stateMutability": "nonpayable",
      "type": "function"
    },
    {
      "inputs": [],
      "name": "paused",
      "outputs": [
        {
          "internalType": "bool",
          "name": "",
          "type": "bool"
        }
      ],
      "stateMutability": "view",
      "type": "function"
    },
    {
      "inputs": [
        {
          "internalType": "bytes32",
          "name": "role",
          "type": "bytes32"
        },
        {
          "internalType": "address",
          "name": "callerConfirmation",
          "type": "address"
        }
      ],
      "name": "renounceRole",
      "outputs": [],
      "stateMutability": "nonpayable",
      "type": "function"
    },
    {
      "inputs": [
        {
          "internalType": "bytes32",
          "name": "role",
          "type": "bytes32"
        },
        {
          "internalType": "address",
          "name": "account",
          "type": "address"
        }
      ],
      "name": "revokeRole",
      "outputs": [],
      "stateMutability": "nonpayable",
      "type": "function"
    },
    {
      "inputs": [
        {
          "internalType": "address",
          "name": "from",
          "type": "address"
        },
        {
          "internalType": "address",
          "name": "to",
          "type": "address"
        },
        {
          "internalType": "uint256",
          "name": "tokenId",
          "type": "uint256"
        }
      ],
      "name": "safeTransferFrom",
      "outputs": [],
      "stateMutability": "nonpayable",
      "type": "function"
    },
    {
      "inputs": [
        {
          "internalType": "address",
          "name": "from",
          "type": "address"
        },
        {
          "internalType": "address",
          "name": "to",
          "type": "address"
        },
        {
          "internalType": "uint256",
          "name": "tokenId",
          "type": "uint256"
        },
        {
          "internalType": "bytes",
          "name": "data",
          "type": "bytes"
        }
      ],
      "name": "safeTransferFrom",
      "outputs": [],
      "stateMutability": "nonpayable",
      "type": "function"
    },
    {
      "inputs": [
        {
          "internalType": "address",
          "name": "",
          "type": "address"
        },
        {
          "internalType": "bool",
          "name": "",
          "type": "bool"
        }
      ],
      "name": "setApprovalForAll",
      "outputs": [],
      "stateMutability": "pure",
      "type": "function"
    },
    {
      "inputs": [
        {
          "internalType": "bytes4",
          "name": "interfaceId",
          "type": "bytes4"
        }
      ],
      "name": "supportsInterface",
      "outputs": [
        {
          "internalType": "bool",
          "name": "",
          "type": "bool"
        }
      ],
      "stateMutability": "view",
      "type": "function"
    },
    {
      "inputs": [],
      "name": "symbol",
      "outputs": [
        {
          "internalType": "string",
          "name": "",
          "type": "string"
        }
      ],
      "stateMutability": "view",
      "type": "function"
    },
    {
      "inputs": [
        {
          "internalType": "uint256",
          "name": "tokenId",
          "type": "uint256"
        }
      ],
      "name": "tokenURI",
      "outputs": [
        {
          "internalType": "string",
          "name": "",
          "type": "string"
        }
      ],
      "stateMutability": "view",
      "type": "function"
    },
    {
      "inputs": [
        {
          "internalType": "address",
          "name": "from",
          "type": "address"
        },
        {
          "internalType": "address",
          "name": "to",
          "type": "address"
        },
        {
          "internalType": "uint256",
          "name": "tokenId",
          "type": "uint256"
        }
      ],
      "name": "transferFrom",
      "outputs": [],
      "stateMutability": "nonpayable",
      "type": "function"
    },
    {
      "inputs": [],
      "name": "unpause",
      "outputs": [],
      "stateMutability": "nonpayable",
      "type": "function"
    }
  ],
  "bytecode": "0x608060405234801561000f575f5ffd5b50604051611bdd380380611bdd83398101604081905261002e916101d5565b82825f61003b83826102de565b50600161004882826102de565b5061005791505f90508261008b565b506100827f9f2df0fed2c77648de5860a4cc508cd0818c85b8b8a1ab4ceeef8d981c8956a68261008b565b50505050610398565b5f8281526007602090815260408083206001600160a01b038516845290915281205460ff1661012f575f8381526007602090815260408083206001600160a01b03861684529091529020805460ff191660011790556100e73390565b6001600160a01b0316826001600160a01b0316847f2f8788117e7eff1d82e926ec794901d17c78024a50270940304540a733656f0d60405160405180910390a4506001610132565b505f5b92915050565b634e487b7160e01b5f52604160045260245ffd5b5f82601f83011261015b575f5ffd5b81516001600160401b0381111561017457610174610138565b604051601f8201601f19908116603f011681016001600160401b03811182821017156101a2576101a2610138565b6040528181528382016020018510156101b9575f5ffd5b8160208501602083015e5f918101602001919091529392505050565b5f5f5f606084860312156101e7575f5ffd5b83516001600160401b038111156101fc575f5ffd5b6102088682870161014c565b602086015190945090506001600160401b03811115610225575f5ffd5b6102318682870161014c565b604086015190935090506001600160a01b038116811461024f575f5ffd5b809150509250925092565b600181811c9082168061026e57607f821691505b60208210810361028c57634e487b7160e01b5f52602260045260245ffd5b50919050565b601f8211156102d957805f5260205f20601f840160051c810160208510156102b75750805b601f840160051c820191505b818110156102d6575f81556001016102c3565b50505b505050565b81516001600160401b038111156102f7576102f7610138565b61030b81610305845461025a565b84610292565b6020601f82116001811461033d575f83156103265750848201515b5f19600385901b1c1916600184901b1784556102d6565b5f84815260208120601f198516915b8281101561036c578785015182556020948501946001909201910161034c565b508482101561038957868401515f19600387901b60f8161c191681555b50505050600190811b01905550565b611838806103a55f395ff3fe608060405234801561000f575f5ffd5b506004361061016d575f3560e01c806370a08231116100d9578063a22cb46511610093578063c87b56dd1161006e578063c87b56dd1461030a578063d53913931461031d578063d547741f14610344578063e985e9c514610357575f5ffd5b8063a22cb465146102d6578063a70d0e45146102e4578063b88d4fde146102f7575f5ffd5b806370a082311461029057806375794a3c146102a35780638456cb59146102ac57806391d14854146102b457806395d89b41146102c7578063a217fddf146102cf575f5ffd5b80632f2ff15d1161012a5780632f2ff15d1461023157806336568abe146102445780633f4ba83a1461025757806342842e0e1461025f5780635c975abb146102725780636352211e1461027d575f5ffd5b806301ffc9a71461017157806306fdde0314610199578063081812fc146101ae578063095ea7b3146101d957806323b872dd146101ee578063248a9ca314610201575b5f5ffd5b61018461017f3660046112f0565b61036a565b60405190151581526020015b60405180910390f35b6101a161037a565b6040516101909190611339565b6101c16101bc36600461134b565b610409565b6040516001600160a01b039091168152602001610190565b6101ec6101e736600461137d565b610430565b005b6101ec6101fc3660046113a5565b610449565b61022361020f36600461134b565b5f9081526007602052604090206001015490565b604051908152602001610190565b6101ec61023f3660046113df565b6104d7565b6101ec6102523660046113df565b6104fb565b6101ec610533565b6101ec61026d3660046113a5565b610548565b60085460ff16610184565b6101c161028b36600461134b565b610562565b61022361029e366004611409565b61056c565b61022360095481565b6101ec6105b1565b6101846102c23660046113df565b6105c3565b6101a16105ed565b6102235f81565b6101ec6101e7366004611422565b6102236102f236600461145b565b6105fc565b6101ec6103053660046114f2565b61076d565b6101a161031836600461134b565b610785565b6102237f9f2df0fed2c77648de5860a4cc508cd0818c85b8b8a1ab4ceeef8d981c8956a681565b6101ec6103523660046113df565b610806565b6101846103653660046115cf565b61082a565b5f61037482610857565b92915050565b60605f8054610388906115f7565b80601f01602080910402602001604051908101604052809291908181526020018280546103b4906115f7565b80156103ff5780601f106103d6576101008083540402835291602001916103ff565b820191905f5260205f20905b8154815290600101906020018083116103e257829003601f168201915b5050505050905090565b5f6104138261087b565b505f828152600460205260409020546001600160a01b0316610374565b60405163a4420a9560e01b815260040160405180910390fd5b6001600160a01b03821661047757604051633250574960e11b81525f60048201526024015b60405180910390fd5b5f6104838383336108b3565b9050836001600160a01b0316816001600160a01b0316146104d1576040516364283d7b60e01b81526001600160a01b038086166004830152602482018490528216604482015260640161046e565b50505050565b5f828152600760205260409020600101546104f181610913565b6104d1838361091d565b6001600160a01b03811633146105245760405163334bd91960e11b815260040160405180910390fd5b61052e82826109ae565b505050565b5f61053d81610913565b610545610a19565b50565b61052e83838360405180602001604052805f81525061076d565b5f6103748261087b565b5f6001600160a01b038216610596576040516322718ad960e21b81525f600482015260240161046e565b506001600160a01b03165f9081526003602052604090205490565b5f6105bb81610913565b610545610a6b565b5f9182526007602090815260408084206001600160a01b0393909316845291905290205460ff1690565b606060018054610388906115f7565b5f610605610aa8565b7f9f2df0fed2c77648de5860a4cc508cd0818c85b8b8a1ab4ceeef8d981c8956a661062f81610913565b5f858152600a602090815260408083206001600160a01b038a16845290915290205460ff16156106725760405163031a394360e61b815260040160405180910390fd5b5f83900361069357604051635e765b2560e11b815260040160405180910390fd5b600980545f91826106a38361162f565b909155505f878152600a602090815260408083206001600160a01b038c1684529091529020805460ff1916600117905590506106df8782610ace565b61071e8186868080601f0160208091040260200160405190810160405280939291908181526020018383808284375f92019190915250610aeb92505050565b866001600160a01b031686827f30def25cf6ecd07c3a835dbdc7cf8fd0d105bcc618957604b32fe7cf66a56504888860405161075b929190611653565b60405180910390a49695505050505050565b610778848484610449565b6104d13385858585610b3a565b60606107908261087b565b505f6107a660408051602081019091525f815290565b90505f6107b284610c62565b905081515f036107c3579392505050565b8051156107f55781816040516020016107dd929190611698565b60405160208183030381529060405292505050919050565b6107fe84610d01565b949350505050565b5f8281526007602052604090206001015461082081610913565b6104d183836109ae565b6001600160a01b039182165f90815260056020908152604080832093909416825291909152205460ff1690565b5f6001600160e01b03198216637965db0b60e01b1480610374575061037482610d72565b5f818152600260205260408120546001600160a01b03168061037457604051637e27328960e01b81526004810184905260240161046e565b5f828152600260205260408120546001600160a01b031680158015906108e157506001600160a01b03851615155b156108ff5760405163a4420a9560e01b815260040160405180910390fd5b61090a858585610d96565b95945050505050565b6105458133610e88565b5f61092883836105c3565b6109a7575f8381526007602090815260408083206001600160a01b03861684529091529020805460ff1916600117905561095f3390565b6001600160a01b0316826001600160a01b0316847f2f8788117e7eff1d82e926ec794901d17c78024a50270940304540a733656f0d60405160405180910390a4506001610374565b505f610374565b5f6109b983836105c3565b156109a7575f8381526007602090815260408083206001600160a01b0386168085529252808320805460ff1916905551339286917ff6391f5c32d9c69d2a47ea670b442974b53935d1edc7fd64eb21e047a839171b9190a4506001610374565b610a21610ec1565b6008805460ff191690557f5db9ee0a495bf2e6ff9c91a7834c1ba4fdd244a5e8aa4e537bd38aeae4b073aa335b6040516001600160a01b03909116815260200160405180910390a1565b610a73610aa8565b6008805460ff191660011790557f62e78cea01bee320cd4e420270b5ea74000d11b0c9f74754ebdbfc544b05a258610a4e3390565b60085460ff1615610acc5760405163d93c066560e01b815260040160405180910390fd5b565b610ae7828260405180602001604052805f815250610ee4565b5050565b5f828152600660205260409020610b0282826116f0565b506040518281527ff8e1a15aba9398e019f0b49df1a4fde98ee17ae345cb5f6b5e2c27f5033e8ce79060200160405180910390a15050565b6001600160a01b0383163b15610c5b57604051630a85bd0160e11b81526001600160a01b0384169063150b7a0290610b7c9088908890879087906004016117ab565b6020604051808303815f875af1925050508015610bb6575060408051601f3d908101601f19168201909252610bb3918101906117e7565b60015b610c1d573d808015610be3576040519150601f19603f3d011682016040523d82523d5f602084013e610be8565b606091505b5080515f03610c1557604051633250574960e11b81526001600160a01b038516600482015260240161046e565b805160208201fd5b6001600160e01b03198116630a85bd0160e11b14610c5957604051633250574960e11b81526001600160a01b038516600482015260240161046e565b505b5050505050565b5f818152600660205260409020805460609190610c7e906115f7565b80601f0160208091040260200160405190810160405280929190818152602001828054610caa906115f7565b8015610cf55780601f10610ccc57610100808354040283529160200191610cf5565b820191905f5260205f20905b815481529060010190602001808311610cd857829003601f168201915b50505050509050919050565b6060610d0c8261087b565b505f610d2260408051602081019091525f815290565b90505f815111610d405760405180602001604052805f815250610d6b565b80610d4a84610efb565b604051602001610d5b929190611698565b6040516020818303038152906040525b9392505050565b5f6001600160e01b03198216632483248360e11b1480610374575061037482610f8b565b5f828152600260205260408120546001600160a01b0390811690831615610dc257610dc2818486610fda565b6001600160a01b03811615610dfc57610ddd5f855f5f61103e565b6001600160a01b0381165f90815260036020526040902080545f190190555b6001600160a01b03851615610e2a576001600160a01b0385165f908152600360205260409020805460010190555b5f8481526002602052604080822080546001600160a01b0319166001600160a01b0389811691821790925591518793918516917fddf252ad1be2c89b69c2b068fc378daa952ba7f163c4a11628f55a4df523b3ef91a4949350505050565b610e9282826105c3565b610ae75760405163e2517d3f60e01b81526001600160a01b03821660048201526024810183905260440161046e565b60085460ff16610acc57604051638dfc202b60e01b815260040160405180910390fd5b610eee8383611142565b61052e335f858585610b3a565b60605f610f07836111a3565b60010190505f8167ffffffffffffffff811115610f2657610f266114de565b6040519080825280601f01601f191660200182016040528015610f50576020820181803683370190505b5090508181016020015b5f19016f181899199a1a9b1b9c1cb0b131b232b360811b600a86061a8153600a8504945084610f5a57509392505050565b5f6001600160e01b031982166380ac58cd60e01b1480610fbb57506001600160e01b03198216635b5e139f60e01b145b8061037457506301ffc9a760e01b6001600160e01b0319831614610374565b610fe583838361127a565b61052e576001600160a01b03831661101357604051637e27328960e01b81526004810182905260240161046e565b60405163177e802f60e01b81526001600160a01b03831660048201526024810182905260440161046e565b808061105257506001600160a01b03821615155b15611113575f6110618461087b565b90506001600160a01b0383161580159061108d5750826001600160a01b0316816001600160a01b031614155b80156110a0575061109e818461082a565b155b156110c95760405163a9fbf51f60e01b81526001600160a01b038416600482015260240161046e565b81156111115783856001600160a01b0316826001600160a01b03167f8c5be1e5ebec7d5bd14f71427d1e84f3dd0314c0f7b2291e5b200ac8c7c3b92560405160405180910390a45b505b50505f90815260046020526040902080546001600160a01b0319166001600160a01b0392909216919091179055565b6001600160a01b03821661116b57604051633250574960e11b81525f600482015260240161046e565b5f61117783835f6108b3565b90506001600160a01b0381161561052e576040516339e3563760e11b81525f600482015260240161046e565b5f8072184f03e93ff9f4daa797ed6e38ed64bf6a1f0160401b83106111e15772184f03e93ff9f4daa797ed6e38ed64bf6a1f0160401b830492506040015b6d04ee2d6d415b85acef8100000000831061120d576d04ee2d6d415b85acef8100000000830492506020015b662386f26fc10000831061122b57662386f26fc10000830492506010015b6305f5e1008310611243576305f5e100830492506008015b612710831061125757612710830492506004015b60648310611269576064830492506002015b600a83106103745760010192915050565b5f6001600160a01b038316158015906107fe5750826001600160a01b0316846001600160a01b031614806112b357506112b3848461082a565b806107fe5750505f908152600460205260409020546001600160a01b03908116911614919050565b6001600160e01b031981168114610545575f5ffd5b5f60208284031215611300575f5ffd5b8135610d6b816112db565b5f81518084528060208401602086015e5f602082860101526020601f19601f83011685010191505092915050565b602081525f610d6b602083018461130b565b5f6020828403121561135b575f5ffd5b5035919050565b80356001600160a01b0381168114611378575f5ffd5b919050565b5f5f6040838503121561138e575f5ffd5b61139783611362565b946020939093013593505050565b5f5f5f606084860312156113b7575f5ffd5b6113c084611362565b92506113ce60208501611362565b929592945050506040919091013590565b5f5f604083850312156113f0575f5ffd5b8235915061140060208401611362565b90509250929050565b5f60208284031215611419575f5ffd5b610d6b82611362565b5f5f60408385031215611433575f5ffd5b61143c83611362565b915060208301358015158114611450575f5ffd5b809150509250929050565b5f5f5f5f6060858703121561146e575f5ffd5b61147785611362565b935060208501359250604085013567ffffffffffffffff811115611499575f5ffd5b8501601f810187136114a9575f5ffd5b803567ffffffffffffffff8111156114bf575f5ffd5b8760208284010111156114d0575f5ffd5b949793965060200194505050565b634e487b7160e01b5f52604160045260245ffd5b5f5f5f5f60808587031215611505575f5ffd5b61150e85611362565b935061151c60208601611362565b925060408501359150606085013567ffffffffffffffff81111561153e575f5ffd5b8501601f8101871361154e575f5ffd5b803567ffffffffffffffff811115611568576115686114de565b604051601f8201601f19908116603f0116810167ffffffffffffffff81118282101715611597576115976114de565b6040528181528282016020018910156115ae575f5ffd5b816020840160208301375f6020838301015280935050505092959194509250565b5f5f604083850312156115e0575f5ffd5b6115e983611362565b915061140060208401611362565b600181811c9082168061160b57607f821691505b60208210810361162957634e487b7160e01b5f52602260045260245ffd5b50919050565b5f6001820161164c57634e487b7160e01b5f52601160045260245ffd5b5060010190565b60208152816020820152818360408301375f818301604090810191909152601f909201601f19160101919050565b5f81518060208401855e5f93019283525090919050565b5f6107fe6116a68386611681565b84611681565b601f82111561052e57805f5260205f20601f840160051c810160208510156116d15750805b601f840160051c820191505b81811015610c5b575f81556001016116dd565b815167ffffffffffffffff81111561170a5761170a6114de565b61171e8161171884546115f7565b846116ac565b6020601f821160018114611750575f83156117395750848201515b5f19600385901b1c1916600184901b178455610c5b565b5f84815260208120601f198516915b8281101561177f578785015182556020948501946001909201910161175f565b508482101561179c57868401515f19600387901b60f8161c191681555b50505050600190811b01905550565b6001600160a01b03858116825284166020820152604081018390526080606082018190525f906117dd9083018461130b565b9695505050505050565b5f602082840312156117f7575f5ffd5b8151610d6b816112db56fea2646970667358221220fd88d3ec26aa16ec9cf109c60a2f0c8756ed45baf3b1f3d7d6e3138c1a076b2e64736f6c634300081c0033",
  "linkReferences": {},
  "deployedLinkReferences": {},
  "immutableReferences": {},
  "inputSourceName": "project/contracts/CertificateNFT.sol",
  "buildInfoId": "solc-0_8_28-92eeb5a97b36577d0b13557c2773c932da2ed18b"
}