{
  "_format": "hh3-artifact-1",
  "contractName": "CourseRegistry",
  "sourceName": "contracts/CourseRegistry.sol",
  "abi": [
    {
      "inputs": [],
      "stateMutability": "nonpayable",
      "type": "constructor"
    },
    {
      "inputs": [],
      "name": "CourseNotFound",
      "type": "error"
    },
    {
      "inputs": [],
      "name": "EnforcedPause",
      "type": "error"
    },
    {
      "inputs": [],
      "name": "ExpectedPause",
      "type": "error"
    },
    {
      "inputs": [],
      "name": "InvalidMetadata",
      "type": "error"
    },
    {
      "inputs": [],
      "name": "NotCreator",
      "type": "error"
    },
    {
      "inputs": [
        {
          "internalType": "address",
          "name": "owner",
          "type": "address"
        }
      ],
      "name": "OwnableInvalidOwner",
      "type": "error"
    },
    {
      "inputs": [
        {
          "internalType": "address",
          "name": "account",
          "type": "address"
        }
      ],
      "name": "OwnableUnauthorizedAccount",
      "type": "error"
    },
    {
      "anonymous": false,
      "inputs": [
        {
          "indexed": true,
          "internalType": "uint256",
          "name": "courseId",
          "type": "uint256"
        },
        {
          "indexed": true,
          "internalType": "address",
          "name": "creator",
          "type": "address"
        },
        {
          "indexed": false,
          "internalType": "string",
          "name": "metadataCID",
          "type": "string"
        },
        {
          "indexed": false,
          "internalType": "uint256",
          "name": "priceWei",
          "type": "uint256"
        }
      ],
      "name": "CourseCreated",
      "type": "event"
    },
    {
      "anonymous": false,
      "inputs": [
        {
          "indexed": true,
          "internalType": "uint256",
          "name": "courseId",
          "type": "uint256"
        },
        {
          "indexed": false,
          "internalType": "string",
          "name": "metadataCID",
          "type": "string"
        },
        {
          "indexed": false,
          "internalType": "uint256",
          "name": "priceWei",
          "type": "uint256"
        },
        {
          "indexed": false,
          "internalType": "bool",
          "name": "active",
          "type": "bool"
        }
      ],
      "name": "CourseUpdated",
      "type": "event"
    },
    {
      "anonymous": false,
      "inputs": [
        {
          "indexed": true,
          "internalType": "address",
          "name": "previousOwner",
          "type": "address"
        },
        {
          "indexed": true,
          "internalType": "address",
          "name": "newOwner",
          "type": "address"
        }
      ],
      "name": "OwnershipTransferred",
      "type": "event"
    },
    {
      "anonymous": false,
      "inputs": [
        {
          "indexed": false,
          "internalType": "address",
          "name": "account",
          "type": "address"
        }
      ],
      "name": "Paused",
      "type": "event"
    },
    {
      "anonymous": false,
      "inputs": [
        {
          "indexed": false,
          "internalType": "address",
          "name": "account",
          "type": "address"
        }
      ],
      "name": "Unpaused",
      "type": "event"
    },
    {
      "inputs": [
        {
          "internalType": "uint256",
          "name": "",
          "type": "uint256"
        }
      ],
      "name": "courses",
      "outputs": [
        {
          "internalType": "address",
          "name": "creator",
          "type": "address"
        },
        {
          "internalType": "string",
          "name": "metadataCID",
          "type": "string"
        },
        {
          "internalType": "uint256",
          "name": "priceWei",
          "type": "uint256"
        },
        {
          "internalType": "bool",
          "name": "active",
          "type": "bool"
        }
      ],
      "stateMutability": "view",
      "type": "function"
    },
    {
      "inputs": [
        {
          "internalType": "string",
          "name": "metadataCID",
          "type": "string"
        },
        {
          "internalType": "uint256",
          "name": "priceWei",
          "type": "uint256"
        }
      ],
      "name": "createCourse",
      "outputs": [
        {
          "internalType": "uint256",
          "name": "",
          "type": "uint256"
        }
      ],
      "stateMutability": "nonpayable",
      "type": "function"
    },
    {
      "inputs": [],
      "name": "nextCourseId",
      "outputs": [
        {
          "internalType": "uint256",
          "name": "",
          "type": "uint256"
        }
      ],
      "stateMutability": "view",
      "type": "function"
    },
    {
      "inputs": [],
      "name": "owner",
      "outputs": [
        {
          "internalType": "address",
          "name": "",
          "type": "address"
        }
      ],
      "stateMutability": "view",
      "type": "function"
    },
    {
      "inputs": [],
      "name": "pause",
      "outputs": [],
      "stateMutability": "nonpayable",
      "type": "function"
    },
    {
      "inputs": [],
      "name": "paused",
      "outputs": [
        {
          "internalType": "bool",
          "name": "",
          "type": "bool"
        }
      ],
      "stateMutability": "view",
      "type": "function"
    },
    {
      "inputs": [],
      "name": "renounceOwnership",
      "outputs": [],
      "stateMutability": "nonpayable",
      "type": "function"
    },
    {
      "inputs": [
        {
          "internalType": "address",
          "name": "newOwner",
          "type": "address"
        }
      ],
      "name": "transferOwnership",
      "outputs": [],
      "stateMutability": "nonpayable",
      "type": "function"
    },
    {
      "inputs": [],
      "name": "unpause",
      "outputs": [],
      "stateMutability": "nonpayable",
      "type": "function"
    },
    {
      "inputs": [
        {
          "internalType": "uint256",
          "name": "courseId",
          "type": "uint256"
        },
        {
          "internalType": "string",
          "name": "metadataCID",
          "type": "string"
        },
        {
          "internalType": "uint256",
          "name": "priceWei",
          "type": "uint256"
        },
        {
          "internalType": "bool",
          "name": "active",
          "type": "bool"
        }
      ],
      "name": "updateCourse",
      "outputs": [],
      "stateMutability": "nonpayable",
      "type": "function"
    }
  ],
  "bytecode": "0x6080604052348015600e575f5ffd5b503380603357604051631e4fbdf760e01b81525f600482015260240160405180910390fd5b603a81603f565b50608e565b5f80546001600160a01b038381166001600160a01b0319831681178455604051919092169283917f8be0079c531659141344cd1fd0a4f28419497f9722a3daafe3b4186f6b6457e09190a35050565b610aa88061009b5f395ff3fe608060405234801561000f575f5ffd5b506004361061009b575f3560e01c80638da5cb5b116100635780638da5cb5b146100f157806396f979d21461010b578063a1db0e271461012e578063e7905bc114610141578063f2fde38b14610154575f5ffd5b80633f4ba83a1461009f5780635c975abb146100a9578063715018a6146100ca5780637d83daf2146100d25780638456cb59146100e9575b5f5ffd5b6100a7610167565b005b5f54600160a01b900460ff1660405190151581526020015b60405180910390f35b6100a7610179565b6100db60015481565b6040519081526020016100c1565b6100a761018a565b5f546040516001600160a01b0390911681526020016100c1565b61011e61011936600461063c565b61019a565b6040516100c19493929190610653565b6100db61013c3660046106ec565b610256565b6100a761014f366004610734565b61039f565b6100a761016236600461079e565b610496565b61016f6104d8565b610177610504565b565b6101816104d8565b6101775f610558565b6101926104d8565b6101776105a7565b60026020525f9081526040902080546001820180546001600160a01b0390921692916101c5906107cb565b80601f01602080910402602001604051908101604052809291908181526020018280546101f1906107cb565b801561023c5780601f106102135761010080835404028352916020019161023c565b820191905f5260205f20905b81548152906001019060200180831161021f57829003601f168201915b50505050600283015460039093015491929160ff16905084565b5f61025f6105e9565b5f83900361028057604051635e765b2560e11b815260040160405180910390fd5b600180545f918261029083610803565b9190505590506040518060800160405280336001600160a01b0316815260200186868080601f0160208091040260200160405190810160405280939291908181526020018383808284375f9201829052509385525050506020808301879052600160409384018190528583526002825292909120835181546001600160a01b0319166001600160a01b039091161781559083015190918201906103339082610887565b5060408281015160028301556060909201516003909101805460ff191691151591909117905551339082907f27b444394f1a7b0aa73d468ff76433d70ccbd1517709b5a2b06eaf249a4ddcf09061038f9089908990899061096a565b60405180910390a3949350505050565b6103a76105e9565b5f85815260026020526040902080546001600160a01b03166103dc5760405163ee8fc9d160e01b815260040160405180910390fd5b80546001600160a01b03163314610406576040516393687c0b60e01b815260040160405180910390fd5b5f84900361042757604051635e765b2560e11b815260040160405180910390fd5b6001810161043685878361098d565b506002810183905560038101805460ff191683151517905560405186907f2a862fb735381b2e519f2392b5deecb8239b129cc07879a1cce4f542c01cb59e90610486908890889088908890610a47565b60405180910390a2505050505050565b61049e6104d8565b6001600160a01b0381166104cc57604051631e4fbdf760e01b81525f60048201526024015b60405180910390fd5b6104d581610558565b50565b5f546001600160a01b031633146101775760405163118cdaa760e01b81523360048201526024016104c3565b61050c610613565b5f805460ff60a01b191690557f5db9ee0a495bf2e6ff9c91a7834c1ba4fdd244a5e8aa4e537bd38aeae4b073aa335b6040516001600160a01b03909116815260200160405180910390a1565b5f80546001600160a01b038381166001600160a01b0319831681178455604051919092169283917f8be0079c531659141344cd1fd0a4f28419497f9722a3daafe3b4186f6b6457e09190a35050565b6105af6105e9565b5f805460ff60a01b1916600160a01b1790557f62e78cea01bee320cd4e420270b5ea74000d11b0c9f74754ebdbfc544b05a25861053b3390565b5f54600160a01b900460ff16156101775760405163d93c066560e01b815260040160405180910390fd5b5f54600160a01b900460ff1661017757604051638dfc202b60e01b815260040160405180910390fd5b5f6020828403121561064c575f5ffd5b5035919050565b60018060a01b0385168152608060208201525f8451806080840152806020870160a085015e5f60a0828501015260a0601f19601f830116840101915050836040830152821515606083015295945050505050565b5f5f83601f8401126106b7575f5ffd5b50813567ffffffffffffffff8111156106ce575f5ffd5b6020830191508360208285010111156106e5575f5ffd5b9250929050565b5f5f5f604084860312156106fe575f5ffd5b833567ffffffffffffffff811115610714575f5ffd5b610720868287016106a7565b909790965060209590950135949350505050565b5f5f5f5f5f60808688031215610748575f5ffd5b85359450602086013567ffffffffffffffff811115610765575f5ffd5b610771888289016106a7565b9095509350506040860135915060608601358015158114610790575f5ffd5b809150509295509295909350565b5f602082840312156107ae575f5ffd5b81356001600160a01b03811681146107c4575f5ffd5b9392505050565b600181811c908216806107df57607f821691505b6020821081036107fd57634e487b7160e01b5f52602260045260245ffd5b50919050565b5f6001820161082057634e487b7160e01b5f52601160045260245ffd5b5060010190565b634e487b7160e01b5f52604160045260245ffd5b601f82111561088257805f5260205f20601f840160051c810160208510156108605750805b601f840160051c820191505b8181101561087f575f815560010161086c565b50505b505050565b815167ffffffffffffffff8111156108a1576108a1610827565b6108b5816108af84546107cb565b8461083b565b6020601f8211600181146108e7575f83156108d05750848201515b5f19600385901b1c1916600184901b17845561087f565b5f84815260208120601f198516915b8281101561091657878501518255602094850194600190920191016108f6565b508482101561093357868401515f19600387901b60f8161c191681555b50505050600190811b01905550565b81835281816020850137505f828201602090810191909152601f909101601f19169091010190565b604081525f61097d604083018587610942565b9050826020830152949350505050565b67ffffffffffffffff8311156109a5576109a5610827565b6109b9836109b383546107cb565b8361083b565b5f601f8411600181146109ea575f85156109d35750838201355b5f19600387901b1c1916600186901b17835561087f565b5f83815260208120601f198716915b82811015610a1957868501358255602094850194600190920191016109f9565b5086821015610a35575f1960f88860031b161c19848701351681555b505060018560011b0183555050505050565b606081525f610a5a606083018688610942565b6020830194909452509015156040909101529291505056fea26469706673582212203e24f14009d03bef75d83c4fc7a07fbaeeca7ded60e645ec8efe943fd9dac7ff64736f6c634300081c0033",
  "linkReferences": {},
  "deployedLinkReferences": {},
  "immutableReferences": {},
  "inputSourceName": "project/contracts/CourseRegistry.sol",
  "buildInfoId": "solc-0_8_28-67a68bac16dbd1392f8a08d097547c4a6cd7bfb1"
}