{
  "_format": "hh3-artifact-1",
  "contractName": "CoursePurchase",
  "sourceName": "contracts/CoursePurchase.sol",
  "abi": [
    {
      "inputs": [
        {
          "internalType": "address",
          "name": "registryAddress",
          "type": "address"
        }
      ],
      "stateMutability": "nonpayable",
      "type": "constructor"
    },
    {
      "inputs": [],
      "name": "AlreadyEnrolled",
      "type": "error"
    },
    {
      "inputs": [],
      "name": "CourseInactive",
      "type": "error"
    },
    {
      "inputs": [],
      "name": "CourseNotFound",
      "type": "error"
    },
    {
      "inputs": [],
      "name": "EnforcedPause",
      "type": "error"
    },
    {
      "inputs": [],
      "name": "ExpectedPause",
      "type": "error"
    },
    {
      "inputs": [
        {
          "internalType": "address",
          "name": "owner",
          "type": "address"
        }
      ],
      "name": "OwnableInvalidOwner",
      "type": "error"
    },
    {
      "inputs": [
        {
          "internalType": "address",
          "name": "account",
          "type": "address"
        }
      ],
      "name": "OwnableUnauthorizedAccount",
      "type": "error"
    },
    {
      "inputs": [],
      "name": "PaymentFailed",
      "type": "error"
    },
    {
      "inputs": [],
      "name": "ReentrancyGuardReentrantCall",
      "type": "error"
    },
    {
      "inputs": [],
      "name": "WrongPrice",
      "type": "error"
    },
    {
      "anonymous": false,
      "inputs": [
        {
          "indexed": true,
          "internalType": "uint256",
          "name": "courseId",
          "type": "uint256"
        },
        {
          "indexed": true,
          "internalType": "address",
          "name": "buyer",
          "type": "address"
        },
        {
          "indexed": true,
          "internalType": "address",
          "name": "creator",
          "type": "address"
        },
        {
          "indexed": false,
          "internalType": "uint256",
          "name": "priceWei",
          "type": "uint256"
        }
      ],
      "name": "CoursePurchased",
      "type": "event"
    },
    {
      "anonymous": false,
      "inputs": [
        {
          "indexed": true,
          "internalType": "address",
          "name": "previousOwner",
          "type": "address"
        },
        {
          "indexed": true,
          "internalType": "address",
          "name": "newOwner",
          "type": "address"
        }
      ],
      "name": "OwnershipTransferred",
      "type": "event"
    },
    {
      "anonymous": false,
      "inputs": [
        {
          "indexed": false,
          "internalType": "address",
          "name": "account",
          "type": "address"
        }
      ],
      "name": "Paused",
      "type": "event"
    },
    {
      "anonymous": false,
      "inputs": [
        {
          "indexed": false,
          "internalType": "address",
          "name": "account",
          "type": "address"
        }
      ],
      "name": "Unpaused",
      "type": "event"
    },
    {
      "inputs": [
        {
          "internalType": "uint256",
          "name": "courseId",
          "type": "uint256"
        }
      ],
      "name": "buyCourse",
      "outputs": [],
      "stateMutability": "payable",
      "type": "function"
    },
    {
      "inputs": [
        {
          "internalType": "uint256",
          "name": "",
          "type": "uint256"
        },
        {
          "internalType": "address",
          "name": "",
          "type": "address"
        }
      ],
      "name": "enrolledAt",
      "outputs": [
        {
          "internalType": "uint256",
          "name": "",
          "type": "uint256"
        }
      ],
      "stateMutability": "view",
      "type": "function"
    },
    {
      "inputs": [
        {
          "internalType": "uint256",
          "name": "courseId",
          "type": "uint256"
        },
        {
          "internalType": "address",
          "name": "account",
          "type": "address"
        }
      ],
      "name": "hasAccess",
      "outputs": [
        {
          "internalType": "bool",
          "name": "",
          "type": "bool"
        }
      ],
      "stateMutability": "view",
      "type": "function"
    },
    {
      "inputs": [],
      "name": "owner",
      "outputs": [
        {
          "internalType": "address",
          "name": "",
          "type": "address"
        }
      ],
      "stateMutability": "view",
      "type": "function"
    },
    {
      "inputs": [],
      "name": "pause",
      "outputs": [],
      "stateMutability": "nonpayable",
      "type": "function"
    },
    {
      "inputs": [],
      "name": "paused",
      "outputs": [
        {
          "internalType": "bool",
          "name": "",
          "type": "bool"
        }
      ],
      "stateMutability": "view",
      "type": "function"
    },
    {
      "inputs": [],
      "name": "registry",
      "outputs": [
        {
          "internalType": "contract ICourseRegistry",
          "name": "",
          "type": "address"
        }
      ],
      "stateMutability": "view",
      "type": "function"
    },
    {
      "inputs": [],
      "name": "renounceOwnership",
      "outputs": [],
      "stateMutability": "nonpayable",
      "type": "function"
    },
    {
      "inputs": [
        {
          "internalType": "address",
          "name": "newOwner",
          "type": "address"
        }
      ],
      "name": "transferOwnership",
      "outputs": [],
      "stateMutability": "nonpayable",
      "type": "function"
    },
    {
      "inputs": [],
      "name": "unpause",
      "outputs": [],
      "stateMutability": "nonpayable",
      "type": "function"
    },
    {
      "inputs": [
        {
          "internalType": "address",
          "name": "registryAddress",
          "type": "address"
        }
      ],
      "name": "updateRegistry",
      "outputs": [],
      "stateMutability": "nonpayable",
      "type": "function"
    }
  ],
  "bytecode": "0x608060405234801561000f575f5ffd5b506040516109dc3803806109dc83398101604081905261002e916100f5565b338061005357604051631e4fbdf760e01b81525f600482015260240160405180910390fd5b61005c816100a6565b5060017f9b779b17422d0df92223018b32b4d1fa46e071723d6817e2486d003becc55f0055600180546001600160a01b0319166001600160a01b0392909216919091179055610122565b5f80546001600160a01b038381166001600160a01b0319831681178455604051919092169283917f8be0079c531659141344cd1fd0a4f28419497f9722a3daafe3b4186f6b6457e09190a35050565b5f60208284031215610105575f5ffd5b81516001600160a01b038116811461011b575f5ffd5b9392505050565b6108ad8061012f5f395ff3fe608060405260043610610099575f3560e01c8063715018a611610062578063715018a6146101575780637b1039991461016b5780638456cb59146101a25780638da5cb5b146101b6578063ced14198146101d2578063f2fde38b14610216575f5ffd5b8062d974b91461009d578063194d73a2146100e65780631a5da6c8146100fb5780633f4ba83a1461011a5780635c975abb1461012e575b5f5ffd5b3480156100a8575f5ffd5b506100d36100b7366004610706565b600360209081525f928352604080842090915290825290205481565b6040519081526020015b60405180910390f35b6100f96100f4366004610734565b610235565b005b348015610106575f5ffd5b506100f961011536600461074b565b610482565b348015610125575f5ffd5b506100f96104ac565b348015610139575f5ffd5b505f54600160a01b900460ff165b60405190151581526020016100dd565b348015610162575f5ffd5b506100f96104be565b348015610176575f5ffd5b5060015461018a906001600160a01b031681565b6040516001600160a01b0390911681526020016100dd565b3480156101ad575f5ffd5b506100f96104cf565b3480156101c1575f5ffd5b505f546001600160a01b031661018a565b3480156101dd575f5ffd5b506101476101ec366004610706565b5f9182526002602090815260408084206001600160a01b0393909316845291905290205460ff1690565b348015610221575f5ffd5b506100f961023036600461074b565b6104df565b61023d61051e565b610245610548565b600154604051634b7cbce960e11b8152600481018390525f91829182916001600160a01b0316906396f979d2906024015f60405180830381865afa15801561028f573d5f5f3e3d5ffd5b505050506040513d5f823e601f3d908101601f191682016040526102b69190810190610795565b9295509350909150506001600160a01b0383166102e65760405163ee8fc9d160e01b815260040160405180910390fd5b806103045760405163eabd807760e01b815260040160405180910390fd5b5f84815260026020908152604080832033845290915290205460ff161561033e57604051636d6d97d960e01b815260040160405180910390fd5b81341461035e5760405163f7760f2560e01b815260040160405180910390fd5b5f84815260026020908152604080832033808552908352818420805460ff1916600117905587845260038352818420908452909152808220429055516001600160a01b0385169034908381818185875af1925050503d805f81146103dd576040519150601f19603f3d011682016040523d82523d5f602084013e6103e2565b606091505b5050905080610404576040516307a4ced160e51b815260040160405180910390fd5b836001600160a01b0316336001600160a01b0316867fe53bd3319c04c87d79fe758a7ac40d85011f9672189924eaca0fc2175657fd9e3460405161044a91815260200190565b60405180910390a45050505061047f60017f9b779b17422d0df92223018b32b4d1fa46e071723d6817e2486d003becc55f0055565b50565b61048a610576565b600180546001600160a01b0319166001600160a01b0392909216919091179055565b6104b4610576565b6104bc6105a2565b565b6104c6610576565b6104bc5f6105f6565b6104d7610576565b6104bc610645565b6104e7610576565b6001600160a01b03811661051557604051631e4fbdf760e01b81525f60048201526024015b60405180910390fd5b61047f816105f6565b5f54600160a01b900460ff16156104bc5760405163d93c066560e01b815260040160405180910390fd5b610550610687565b60027f9b779b17422d0df92223018b32b4d1fa46e071723d6817e2486d003becc55f0055565b5f546001600160a01b031633146104bc5760405163118cdaa760e01b815233600482015260240161050c565b6105aa6106c9565b5f805460ff60a01b191690557f5db9ee0a495bf2e6ff9c91a7834c1ba4fdd244a5e8aa4e537bd38aeae4b073aa335b6040516001600160a01b03909116815260200160405180910390a1565b5f80546001600160a01b038381166001600160a01b0319831681178455604051919092169283917f8be0079c531659141344cd1fd0a4f28419497f9722a3daafe3b4186f6b6457e09190a35050565b61064d61051e565b5f805460ff60a01b1916600160a01b1790557f62e78cea01bee320cd4e420270b5ea74000d11b0c9f74754ebdbfc544b05a2586105d93390565b7f9b779b17422d0df92223018b32b4d1fa46e071723d6817e2486d003becc55f00546002036104bc57604051633ee5aeb560e01b815260040160405180910390fd5b5f54600160a01b900460ff166104bc57604051638dfc202b60e01b815260040160405180910390fd5b6001600160a01b038116811461047f575f5ffd5b5f5f60408385031215610717575f5ffd5b823591506020830135610729816106f2565b809150509250929050565b5f60208284031215610744575f5ffd5b5035919050565b5f6020828403121561075b575f5ffd5b8135610766816106f2565b9392505050565b634e487b7160e01b5f52604160045260245ffd5b80518015158114610790575f5ffd5b919050565b5f5f5f5f608085870312156107a8575f5ffd5b84516107b3816106f2565b602086015190945067ffffffffffffffff8111156107cf575f5ffd5b8501601f810187136107df575f5ffd5b805167ffffffffffffffff8111156107f9576107f961076d565b604051601f8201601f19908116603f0116810167ffffffffffffffff811182821017156108285761082861076d565b60405281815282820160200189101561083f575f5ffd5b8160208401602083015e5f918101602001919091526040870151909450925061086c905060608601610781565b90509295919450925056fea2646970667358221220b7c00535e71d31eaa3c7096c9d9a0425c47669c59a52b53a1c1d342bb90bba1364736f6c634300081c0033",
  "linkReferences": {},
  "deployedLinkReferences": {},
  "immutableReferences": {},
  "inputSourceName": "project/contracts/CoursePurchase.sol",
  "buildInfoId": "solc-0_8_28-02b6ba4e332c16624cb67dde4322781614688205"
}