{
  "_format": "hh3-artifact-1",
  "contractName": "CoursePurchase",
  "sourceName": "contracts/CoursePurchase.sol",
  "abi": [
    {
      "inputs": [
        {
          "internalType": "address",
          "name": "registryAddress",
          "type": "address"
        }
      ],
      "stateMutability": "nonpayable",
      "type": "constructor"
    },
    {
      "inputs": [],
      "name": "AlreadyEnrolled",
      "type": "error"
    },
    {
      "inputs": [],
      "name": "CourseInactive",
      "type": "error"
    },
    {
      "inputs": [],
      "name": "CourseNotFound",
      "type": "error"
    },
    {
      "inputs": [],
      "name": "EnforcedPause",
      "type": "error"
    },
    {
      "inputs": [],
      "name": "ExpectedPause",
      "type": "error"
    },
    {
      "inputs": [],
      "name": "InvalidRegistry",
      "type": "error"
    },
    {
      "inputs": [
        {
          "internalType": "address",
          "name": "owner",
          "type": "address"
        }
      ],
      "name": "OwnableInvalidOwner",
      "type": "error"
    },
    {
      "inputs": [
        {
          "internalType": "address",
          "name": "account",
          "type": "address"
        }
      ],
      "name": "OwnableUnauthorizedAccount",
      "type": "error"
    },
    {
      "inputs": [],
      "name": "PaymentFailed",
      "type": "error"
    },
    {
      "inputs": [],
      "name": "ReentrancyGuardReentrantCall",
      "type": "error"
    },
    {
      "inputs": [],
      "name": "WrongPrice",
      "type": "error"
    },
    {
      "anonymous": false,
      "inputs": [
        {
          "indexed": true,
          "internalType": "uint256",
          "name": "courseId",
          "type": "uint256"
        },
        {
          "indexed": true,
          "internalType": "address",
          "name": "buyer",
          "type": "address"
        },
        {
          "indexed": true,
          "internalType": "address",
          "name": "creator",
          "type": "address"
        },
        {
          "indexed": false,
          "internalType": "uint256",
          "name": "priceWei",
          "type": "uint256"
        }
      ],
      "name": "CoursePurchased",
      "type": "event"
    },
    {
      "anonymous": false,
      "inputs": [
        {
          "indexed": true,
          "internalType": "address",
          "name": "previousOwner",
          "type": "address"
        },
        {
          "indexed": true,
          "internalType": "address",
          "name": "newOwner",
          "type": "address"
        }
      ],
      "name": "OwnershipTransferred",
      "type": "event"
    },
    {
      "anonymous": false,
      "inputs": [
        {
          "indexed": false,
          "internalType": "address",
          "name": "account",
          "type": "address"
        }
      ],
      "name": "Paused",
      "type": "event"
    },
    {
      "anonymous": false,
      "inputs": [
        {
          "indexed": false,
          "internalType": "address",
          "name": "account",
          "type": "address"
        }
      ],
      "name": "Unpaused",
      "type": "event"
    },
    {
      "inputs": [
        {
          "internalType": "uint256",
          "name": "courseId",
          "type": "uint256"
        }
      ],
      "name": "buyCourse",
      "outputs": [],
      "stateMutability": "payable",
      "type": "function"
    },
    {
      "inputs": [
        {
          "internalType": "uint256",
          "name": "",
          "type": "uint256"
        },
        {
          "internalType": "address",
          "name": "",
          "type": "address"
        }
      ],
      "name": "enrolledAt",
      "outputs": [
        {
          "internalType": "uint256",
          "name": "",
          "type": "uint256"
        }
      ],
      "stateMutability": "view",
      "type": "function"
    },
    {
      "inputs": [
        {
          "internalType": "uint256",
          "name": "courseId",
          "type": "uint256"
        },
        {
          "internalType": "address",
          "name": "account",
          "type": "address"
        }
      ],
      "name": "hasAccess",
      "outputs": [
        {
          "internalType": "bool",
          "name": "",
          "type": "bool"
        }
      ],
      "stateMutability": "view",
      "type": "function"
    },
    {
      "inputs": [],
      "name": "owner",
      "outputs": [
        {
          "internalType": "address",
          "name": "",
          "type": "address"
        }
      ],
      "stateMutability": "view",
      "type": "function"
    },
    {
      "inputs": [],
      "name": "pause",
      "outputs": [],
      "stateMutability": "nonpayable",
      "type": "function"
    },
    {
      "inputs": [],
      "name": "paused",
      "outputs": [
        {
          "internalType": "bool",
          "name": "",
          "type": "bool"
        }
      ],
      "stateMutability": "view",
      "type": "function"
    },
    {
      "inputs": [],
      "name": "registry",
      "outputs": [
        {
          "internalType": "contract ICourseRegistry",
          "name": "",
          "type": "address"
        }
      ],
      "stateMutability": "view",
      "type": "function"
    },
    {
      "inputs": [],
      "name": "renounceOwnership",
      "outputs": [],
      "stateMutability": "nonpayable",
      "type": "function"
    },
    {
      "inputs": [
        {
          "internalType": "address",
          "name": "newOwner",
          "type": "address"
        }
      ],
      "name": "transferOwnership",
      "outputs": [],
      "stateMutability": "nonpayable",
      "type": "function"
    },
    {
      "inputs": [],
      "name": "unpause",
      "outputs": [],
      "stateMutability": "nonpayable",
      "type": "function"
    },
    {
      "inputs": [
        {
          "internalType": "address",
          "name": "registryAddress",
          "type": "address"
        }
      ],
      "name": "updateRegistry",
      "outputs": [],
      "stateMutability": "nonpayable",
      "type": "function"
    }
  ],
  "bytecode": "0x608060405234801561000f575f5ffd5b50604051610a2a380380610a2a83398101604081905261002e9161011c565b338061005357604051631e4fbdf760e01b81525f600482015260240160405180910390fd5b61005c816100cd565b5060017f9b779b17422d0df92223018b32b4d1fa46e071723d6817e2486d003becc55f00556001600160a01b0381166100a8576040516311a1e69760e01b815260040160405180910390fd5b600180546001600160a01b0319166001600160a01b0392909216919091179055610149565b5f80546001600160a01b038381166001600160a01b0319831681178455604051919092169283917f8be0079c531659141344cd1fd0a4f28419497f9722a3daafe3b4186f6b6457e09190a35050565b5f6020828403121561012c575f5ffd5b81516001600160a01b0381168114610142575f5ffd5b9392505050565b6108d4806101565f395ff3fe608060405260043610610099575f3560e01c8063715018a611610062578063715018a6146101575780637b1039991461016b5780638456cb59146101a25780638da5cb5b146101b6578063ced14198146101d2578063f2fde38b14610216575f5ffd5b8062d974b91461009d578063194d73a2146100e65780631a5da6c8146100fb5780633f4ba83a1461011a5780635c975abb1461012e575b5f5ffd5b3480156100a8575f5ffd5b506100d36100b736600461072d565b600360209081525f928352604080842090915290825290205481565b6040519081526020015b60405180910390f35b6100f96100f436600461075b565b610235565b005b348015610106575f5ffd5b506100f9610115366004610772565b610482565b348015610125575f5ffd5b506100f96104d3565b348015610139575f5ffd5b505f54600160a01b900460ff165b60405190151581526020016100dd565b348015610162575f5ffd5b506100f96104e5565b348015610176575f5ffd5b5060015461018a906001600160a01b031681565b6040516001600160a01b0390911681526020016100dd565b3480156101ad575f5ffd5b506100f96104f6565b3480156101c1575f5ffd5b505f546001600160a01b031661018a565b3480156101dd575f5ffd5b506101476101ec36600461072d565b5f9182526002602090815260408084206001600160a01b0393909316845291905290205460ff1690565b348015610221575f5ffd5b506100f9610230366004610772565b610506565b61023d610545565b61024561056f565b600154604051634b7cbce960e11b8152600481018390525f91829182916001600160a01b0316906396f979d2906024015f60405180830381865afa15801561028f573d5f5f3e3d5ffd5b505050506040513d5f823e601f3d908101601f191682016040526102b691908101906107bc565b9295509350909150506001600160a01b0383166102e65760405163ee8fc9d160e01b815260040160405180910390fd5b806103045760405163eabd807760e01b815260040160405180910390fd5b5f84815260026020908152604080832033845290915290205460ff161561033e57604051636d6d97d960e01b815260040160405180910390fd5b81341461035e5760405163f7760f2560e01b815260040160405180910390fd5b5f84815260026020908152604080832033808552908352818420805460ff1916600117905587845260038352818420908452909152808220429055516001600160a01b0385169034908381818185875af1925050503d805f81146103dd576040519150601f19603f3d011682016040523d82523d5f602084013e6103e2565b606091505b5050905080610404576040516307a4ced160e51b815260040160405180910390fd5b836001600160a01b0316336001600160a01b0316867fe53bd3319c04c87d79fe758a7ac40d85011f9672189924eaca0fc2175657fd9e3460405161044a91815260200190565b60405180910390a45050505061047f60017f9b779b17422d0df92223018b32b4d1fa46e071723d6817e2486d003becc55f0055565b50565b61048a61059d565b6001600160a01b0381166104b1576040516311a1e69760e01b815260040160405180910390fd5b600180546001600160a01b0319166001600160a01b0392909216919091179055565b6104db61059d565b6104e36105c9565b565b6104ed61059d565b6104e35f61061d565b6104fe61059d565b6104e361066c565b61050e61059d565b6001600160a01b03811661053c57604051631e4fbdf760e01b81525f60048201526024015b60405180910390fd5b61047f8161061d565b5f54600160a01b900460ff16156104e35760405163d93c066560e01b815260040160405180910390fd5b6105776106ae565b60027f9b779b17422d0df92223018b32b4d1fa46e071723d6817e2486d003becc55f0055565b5f546001600160a01b031633146104e35760405163118cdaa760e01b8152336004820152602401610533565b6105d16106f0565b5f805460ff60a01b191690557f5db9ee0a495bf2e6ff9c91a7834c1ba4fdd244a5e8aa4e537bd38aeae4b073aa335b6040516001600160a01b03909116815260200160405180910390a1565b5f80546001600160a01b038381166001600160a01b0319831681178455604051919092169283917f8be0079c531659141344cd1fd0a4f28419497f9722a3daafe3b4186f6b6457e09190a35050565b610674610545565b5f805460ff60a01b1916600160a01b1790557f62e78cea01bee320cd4e420270b5ea74000d11b0c9f74754ebdbfc544b05a2586106003390565b7f9b779b17422d0df92223018b32b4d1fa46e071723d6817e2486d003becc55f00546002036104e357604051633ee5aeb560e01b815260040160405180910390fd5b5f54600160a01b900460ff166104e357604051638dfc202b60e01b815260040160405180910390fd5b6001600160a01b038116811461047f575f5ffd5b5f5f6040838503121561073e575f5ffd5b82359150602083013561075081610719565b809150509250929050565b5f6020828403121561076b575f5ffd5b5035919050565b5f60208284031215610782575f5ffd5b813561078d81610719565b9392505050565b634e487b7160e01b5f52604160045260245ffd5b805180151581146107b7575f5ffd5b919050565b5f5f5f5f608085870312156107cf575f5ffd5b84516107da81610719565b602086015190945067ffffffffffffffff8111156107f6575f5ffd5b8501601f81018713610806575f5ffd5b805167ffffffffffffffff81111561082057610820610794565b604051601f8201601f19908116603f0116810167ffffffffffffffff8111828210171561084f5761084f610794565b604052818152828201602001891015610866575f5ffd5b8160208401602083015e5f91810160200191909152604087015190945092506108939050606086016107a8565b90509295919450925056fea2646970667358221220ffa134c1a6158e286e354d936a58a1fd626ae2e1a95509065c8a46dc0fa4b98f64736f6c634300081c0033",
  "linkReferences": {},
  "deployedLinkReferences": {},
  "immutableReferences": {},
  "inputSourceName": "project/contracts/CoursePurchase.sol",
  "buildInfoId": "solc-0_8_28-7c3d810f24ffc46fd4e442db8d6ef6e26e3fd85d"
}