{
  "_format": "hh3-artifact-1",
  "contractName": "CourseRegistry",
  "sourceName": "contracts/CourseRegistry.sol",
  "abi": [
    {
      "inputs": [],
      "stateMutability": "nonpayable",
      "type": "constructor"
    },
    {
      "inputs": [],
      "name": "CourseNotFound",
      "type": "error"
    },
    {
      "inputs": [],
      "name": "DuplicateMetadata",
      "type": "error"
    },
    {
      "inputs": [],
      "name": "EnforcedPause",
      "type": "error"
    },
    {
      "inputs": [],
      "name": "ExpectedPause",
      "type": "error"
    },
    {
      "inputs": [],
      "name": "InvalidMetadata",
      "type": "error"
    },
    {
      "inputs": [],
      "name": "NotCreator",
      "type": "error"
    },
    {
      "inputs": [
        {
          "internalType": "address",
          "name": "owner",
          "type": "address"
        }
      ],
      "name": "OwnableInvalidOwner",
      "type": "error"
    },
    {
      "inputs": [
        {
          "internalType": "address",
          "name": "account",
          "type": "address"
        }
      ],
      "name": "OwnableUnauthorizedAccount",
      "type": "error"
    },
    {
      "anonymous": false,
      "inputs": [
        {
          "indexed": true,
          "internalType": "uint256",
          "name": "courseId",
          "type": "uint256"
        },
        {
          "indexed": true,
          "internalType": "address",
          "name": "creator",
          "type": "address"
        },
        {
          "indexed": false,
          "internalType": "string",
          "name": "metadataCID",
          "type": "string"
        },
        {
          "indexed": false,
          "internalType": "uint256",
          "name": "priceWei",
          "type": "uint256"
        }
      ],
      "name": "CourseCreated",
      "type": "event"
    },
    {
      "anonymous": false,
      "inputs": [
        {
          "indexed": true,
          "internalType": "uint256",
          "name": "courseId",
          "type": "uint256"
        },
        {
          "indexed": false,
          "internalType": "string",
          "name": "metadataCID",
          "type": "string"
        },
        {
          "indexed": false,
          "internalType": "uint256",
          "name": "priceWei",
          "type": "uint256"
        },
        {
          "indexed": false,
          "internalType": "bool",
          "name": "active",
          "type": "bool"
        }
      ],
      "name": "CourseUpdated",
      "type": "event"
    },
    {
      "anonymous": false,
      "inputs": [
        {
          "indexed": true,
          "internalType": "address",
          "name": "previousOwner",
          "type": "address"
        },
        {
          "indexed": true,
          "internalType": "address",
          "name": "newOwner",
          "type": "address"
        }
      ],
      "name": "OwnershipTransferred",
      "type": "event"
    },
    {
      "anonymous": false,
      "inputs": [
        {
          "indexed": false,
          "internalType": "address",
          "name": "account",
          "type": "address"
        }
      ],
      "name": "Paused",
      "type": "event"
    },
    {
      "anonymous": false,
      "inputs": [
        {
          "indexed": false,
          "internalType": "address",
          "name": "account",
          "type": "address"
        }
      ],
      "name": "Unpaused",
      "type": "event"
    },
    {
      "inputs": [
        {
          "internalType": "uint256",
          "name": "",
          "type": "uint256"
        }
      ],
      "name": "courses",
      "outputs": [
        {
          "internalType": "address",
          "name": "creator",
          "type": "address"
        },
        {
          "internalType": "string",
          "name": "metadataCID",
          "type": "string"
        },
        {
          "internalType": "uint256",
          "name": "priceWei",
          "type": "uint256"
        },
        {
          "internalType": "bool",
          "name": "active",
          "type": "bool"
        }
      ],
      "stateMutability": "view",
      "type": "function"
    },
    {
      "inputs": [
        {
          "internalType": "string",
          "name": "metadataCID",
          "type": "string"
        },
        {
          "internalType": "uint256",
          "name": "priceWei",
          "type": "uint256"
        }
      ],
      "name": "createCourse",
      "outputs": [
        {
          "internalType": "uint256",
          "name": "",
          "type": "uint256"
        }
      ],
      "stateMutability": "nonpayable",
      "type": "function"
    },
    {
      "inputs": [],
      "name": "nextCourseId",
      "outputs": [
        {
          "internalType": "uint256",
          "name": "",
          "type": "uint256"
        }
      ],
      "stateMutability": "view",
      "type": "function"
    },
    {
      "inputs": [],
      "name": "owner",
      "outputs": [
        {
          "internalType": "address",
          "name": "",
          "type": "address"
        }
      ],
      "stateMutability": "view",
      "type": "function"
    },
    {
      "inputs": [],
      "name": "pause",
      "outputs": [],
      "stateMutability": "nonpayable",
      "type": "function"
    },
    {
      "inputs": [],
      "name": "paused",
      "outputs": [
        {
          "internalType": "bool",
          "name": "",
          "type": "bool"
        }
      ],
      "stateMutability": "view",
      "type": "function"
    },
    {
      "inputs": [],
      "name": "renounceOwnership",
      "outputs": [],
      "stateMutability": "nonpayable",
      "type": "function"
    },
    {
      "inputs": [
        {
          "internalType": "address",
          "name": "newOwner",
          "type": "address"
        }
      ],
      "name": "transferOwnership",
      "outputs": [],
      "stateMutability": "nonpayable",
      "type": "function"
    },
    {
      "inputs": [],
      "name": "unpause",
      "outputs": [],
      "stateMutability": "nonpayable",
      "type": "function"
    },
    {
      "inputs": [
        {
          "internalType": "uint256",
          "name": "courseId",
          "type": "uint256"
        },
        {
          "internalType": "string",
          "name": "metadataCID",
          "type": "string"
        },
        {
          "internalType": "uint256",
          "name": "priceWei",
          "type": "uint256"
        },
        {
          "internalType": "bool",
          "name": "active",
          "type": "bool"
        }
      ],
      "name": "updateCourse",
      "outputs": [],
      "stateMutability": "nonpayable",
      "type": "function"
    }
  ],
  "bytecode": "0x6080604052348015600e575f5ffd5b503380603357604051631e4fbdf760e01b81525f600482015260240160405180910390fd5b603a81603f565b50608e565b5f80546001600160a01b038381166001600160a01b0319831681178455604051919092169283917f8be0079c531659141344cd1fd0a4f28419497f9722a3daafe3b4186f6b6457e09190a35050565b610bc28061009b5f395ff3fe608060405234801561000f575f5ffd5b506004361061009b575f3560e01c80638da5cb5b116100635780638da5cb5b146100f157806396f979d21461010b578063a1db0e271461012e578063e7905bc114610141578063f2fde38b14610154575f5ffd5b80633f4ba83a1461009f5780635c975abb146100a9578063715018a6146100ca5780637d83daf2146100d25780638456cb59146100e9575b5f5ffd5b6100a7610167565b005b5f54600160a01b900460ff1660405190151581526020015b60405180910390f35b6100a7610179565b6100db60015481565b6040519081526020016100c1565b6100a761018a565b5f546040516001600160a01b0390911681526020016100c1565b61011e610119366004610747565b61019a565b6040516100c1949392919061075e565b6100db61013c3660046107f7565b610256565b6100a761014f36600461083f565b610412565b6100a76101623660046108a9565b6105a1565b61016f6105e3565b61017761060f565b565b6101816105e3565b6101775f610663565b6101926105e3565b6101776106b2565b60026020525f9081526040902080546001820180546001600160a01b0390921692916101c5906108d6565b80601f01602080910402602001604051908101604052809291908181526020018280546101f1906108d6565b801561023c5780601f106102135761010080835404028352916020019161023c565b820191905f5260205f20905b81548152906001019060200180831161021f57829003601f168201915b50505050600283015460039093015491929160ff16905084565b5f61025f6106f4565b5f83900361028057604051635e765b2560e11b815260040160405180910390fd5b5f848460405161029192919061090e565b60408051918290039091205f8181526004602052919091205490915060ff16156102ce57604051636548e7d760e01b815260040160405180910390fd5b600180545f91826102de8361091d565b9190505590506040518060800160405280336001600160a01b0316815260200187878080601f0160208091040260200160405190810160405280939291908181526020018383808284375f9201829052509385525050506020808301889052600160409384018190528583526002825292909120835181546001600160a01b0319166001600160a01b0390911617815590830151909182019061038190826109a1565b5060408281015160028301556060909201516003918201805491151560ff199283161790555f84815260209283528381208690558581526004909252908290208054909116600117905551339082907f27b444394f1a7b0aa73d468ff76433d70ccbd1517709b5a2b06eaf249a4ddcf090610401908a908a908a90610a84565b60405180910390a395945050505050565b61041a6106f4565b5f85815260026020526040902080546001600160a01b031661044f5760405163ee8fc9d160e01b815260040160405180910390fd5b80546001600160a01b03163314610479576040516393687c0b60e01b815260040160405180910390fd5b5f84900361049a57604051635e765b2560e11b815260040160405180910390fd5b5f85856040516104ab92919061090e565b60408051918290039091205f898152600360205291909120549091508082148015906104e457505f8281526004602052604090205460ff165b1561050257604051636548e7d760e01b815260040160405180910390fd5b60018301610511878983610aa7565b506002830185905560038301805460ff1916851515179055808214610559575f88815260036020908152604080832085905584835260049091529020805460ff191660011790555b877f2a862fb735381b2e519f2392b5deecb8239b129cc07879a1cce4f542c01cb59e8888888860405161058f9493929190610b61565b60405180910390a25050505050505050565b6105a96105e3565b6001600160a01b0381166105d757604051631e4fbdf760e01b81525f60048201526024015b60405180910390fd5b6105e081610663565b50565b5f546001600160a01b031633146101775760405163118cdaa760e01b81523360048201526024016105ce565b61061761071e565b5f805460ff60a01b191690557f5db9ee0a495bf2e6ff9c91a7834c1ba4fdd244a5e8aa4e537bd38aeae4b073aa335b6040516001600160a01b03909116815260200160405180910390a1565b5f80546001600160a01b038381166001600160a01b0319831681178455604051919092169283917f8be0079c531659141344cd1fd0a4f28419497f9722a3daafe3b4186f6b6457e09190a35050565b6106ba6106f4565b5f805460ff60a01b1916600160a01b1790557f62e78cea01bee320cd4e420270b5ea74000d11b0c9f74754ebdbfc544b05a2586106463390565b5f54600160a01b900460ff16156101775760405163d93c066560e01b815260040160405180910390fd5b5f54600160a01b900460ff1661017757604051638dfc202b60e01b815260040160405180910390fd5b5f60208284031215610757575f5ffd5b5035919050565b60018060a01b0385168152608060208201525f8451806080840152806020870160a085015e5f60a0828501015260a0601f19601f830116840101915050836040830152821515606083015295945050505050565b5f5f83601f8401126107c2575f5ffd5b50813567ffffffffffffffff8111156107d9575f5ffd5b6020830191508360208285010111156107f0575f5ffd5b9250929050565b5f5f5f60408486031215610809575f5ffd5b833567ffffffffffffffff81111561081f575f5ffd5b61082b868287016107b2565b909790965060209590950135949350505050565b5f5f5f5f5f60808688031215610853575f5ffd5b85359450602086013567ffffffffffffffff811115610870575f5ffd5b61087c888289016107b2565b909550935050604086013591506060860135801515811461089b575f5ffd5b809150509295509295909350565b5f602082840312156108b9575f5ffd5b81356001600160a01b03811681146108cf575f5ffd5b9392505050565b600181811c908216806108ea57607f821691505b60208210810361090857634e487b7160e01b5f52602260045260245ffd5b50919050565b818382375f9101908152919050565b5f6001820161093a57634e487b7160e01b5f52601160045260245ffd5b5060010190565b634e487b7160e01b5f52604160045260245ffd5b601f82111561099c57805f5260205f20601f840160051c8101602085101561097a5750805b601f840160051c820191505b81811015610999575f8155600101610986565b50505b505050565b815167ffffffffffffffff8111156109bb576109bb610941565b6109cf816109c984546108d6565b84610955565b6020601f821160018114610a01575f83156109ea5750848201515b5f19600385901b1c1916600184901b178455610999565b5f84815260208120601f198516915b82811015610a305787850151825560209485019460019092019101610a10565b5084821015610a4d57868401515f19600387901b60f8161c191681555b50505050600190811b01905550565b81835281816020850137505f828201602090810191909152601f909101601f19169091010190565b604081525f610a97604083018587610a5c565b9050826020830152949350505050565b67ffffffffffffffff831115610abf57610abf610941565b610ad383610acd83546108d6565b83610955565b5f601f841160018114610b04575f8515610aed5750838201355b5f19600387901b1c1916600186901b178355610999565b5f83815260208120601f198716915b82811015610b335786850135825560209485019460019092019101610b13565b5086821015610b4f575f1960f88860031b161c19848701351681555b505060018560011b0183555050505050565b606081525f610b74606083018688610a5c565b6020830194909452509015156040909101529291505056fea26469706673582212208d0a7e94bc824e084b4f5814a1d78a82ef1d86871ab6c358bfe1fa9867b329d664736f6c634300081c0033",
  "linkReferences": {},
  "deployedLinkReferences": {},
  "immutableReferences": {},
  "inputSourceName": "project/contracts/CourseRegistry.sol",
  "buildInfoId": "solc-0_8_28-18dc54b05bbafd976d8a0da8fe5960dd28874ac5"
}